:100000000C9431050C945C050C945C050C945C0517
:100010000C945C050C945C050C945C050C945C05DC
:100020000C945C050C945C050C94B50C0C945C056C
:100030000C945C050C945C050C945C050C945C05BC
:100040000C945C050C945C050C945C050C945C05AC
:100050000C945C050C945C050C945C050C945C059C
:100060000C945C050C94D80A0C945C050C945C050B
:100070000C945C050C945C050C945C050C945C057C
:100080000C945C050C945C050C945C050C945C056C
:100090000C945C050C945C050C945C050C945C055C
:1000A0000C945C050C945C050C945C050C9487091D
:1000B0000C9496090C942C0A0C945C050C945C0529
:1000C0000C945C050C945C050C945C050C945C052C
:1000D0000C945C050C945C050C945C050C945C051C
:1000E0000C945C050C945C050C94170B0C945C054B
:1000F0000C945C050C945C050C945C050C945C05FC
:100100000C94EE080C9411090C945C050C945C059D
:100110000C945C050C945C050C945C050C945C05DB
:100120000C945C050C945C050C945C050C945C05CB
:100130000C945C050C945C050C945C050C945C05BB
:100140000C945C050C945C050C945C050C945C05AB
:100150000C945C050C945C050C945C050C945C059B
:100160000C945C050C945C050C945C050C945C058B
:100170000C945C050C945C050C945C050C945C057B
:100180000C945C050C945C050C945C050C945C056B
:100190000C945C050C945C050C945C050C945C055B
:1001A0000C945C050C945C050C945C050C945C054B
:1001B0000C945C050C945C050C945C050C945C053B
:1001C0000C945C050C945C050C945C050C945C052B
:1001D0000C945C050C945C050C945C050C945C051B
:1001E0000C945C050C945C050C945C050C945C050B
:1001F0000C945C050C9465210C94182205A84CCD38
:10020000B2D44EB93836A9020C50B9918688083C50
:10021000A6AAAA2ABE000000803F0C94C5230C9415
:10022000B1230C94BC240C94C3230C94B7230C94DA
:100230004F180C94FC240C94C1230C94FD230C94B3
:1002400006260C94D3240C9479230C94C30A0C94A2
:10025000CF2545464765666700202B2D2E3031326D
:10026000333435363738396800010204081020402D
:1002700080000000000120D51D00000D331D00008E
:10028000000541777707001330750100000946DD4E
:100290000500000B50550700000B34010000000161
:1002A00045750000000755570100000942777507A2
:1002B00000132C570700000B58570500000B36D5CC
:1002C0000100000956D7010000094B770100000921
:1002D00047050000000349DDDD01001131771500FD
:1002E000000D37550000000748DD1D00000D4A5D78
:1002F000D70100112ED70500000B437777010011BD
:100300003977000000074D55010000093577570087
:10031000000F38755700000F3F1500000005535DB2
:100320000000000752DD01000009575700000007D8
:1003300044D71D00000D59771D00000D5107000026
:1003400000035417000000054E757700000F327748
:100350000500000B5A5D010000094C770700000BF7
:100360004F57170000102F000000000000FEFDFB9B
:10037000F7EFDFBF7F0102040810204080522D50AC
:100380006901000300E506000001000000290000EB
:1003900000B70BCE860ED0A4A159404A27EC8B940F
:1003A000CC01000200060B5368656166664D6F72F2
:1003B000736520426F617264D7A5020001002000BE
:1003C00000000000000000008100000000000000AC
:1003D000000000000081000000008180000000009B
:1003E00065E40300020078060000D00DFEED000079
:1003F000067600000038000005AC00000028000070
:1004000000110000001000000000000000CA000001
:100410000574000000000000000000000000000063
:1004200000000000000100000000000000030000C8
:100430000027000000006272636D2C62636D323829
:100440003335006272636D2C62636D323730380071
:100450006272636D2C62636D3237303900000000C8
:100460000003000000040000000B00000001000079
:100470000003000000040000001A0000000000005B
:10048000000166726167656D656E74403000000042
:10049000000300000004000000260000000000002F
:1004A0000003000000040000002ADEADBEEF0000E3
:1004B00000015F5F6F7665726C61795F5F000000BD
:1004C00000016D6F7273655F70696E7300000000EC
:1004D00000030000001000000031000000040000D4
:1004E00000110000001600000017000000030000CB
:1004F00000100000003B00000001000000010000AF
:1005000000010000000000000003000000040000E3
:10051000004900000000000000030000000400008B
:100520000053000000010000000300000004000070
:10053000005900000001000000020000000200005D
:10054000000200000001667261676D656E744031E3
:10055000000000000003000000040000002600006E
:1005600000010000000300000005000000612F737F
:100570006F6300000000000000015F5F6F7665722E
:100580006C61795F5F00000000016D6F7273654000
:100590003000000000030000001300000000627241
:1005A000636D2C62636D323833352D6D6F727365F8
:1005B000000000000003000000080000006D6465FA
:1005C0006661756C74000000000300000004000008
:1005D000007B000000010000000300000005000097
:1005E00000856F6B617900000000000000030000CF
:1005F000000400000053000000020000000300009F
:100600000004000000590000000200000001456ED7
:1006100061626C650000000000030000000700003C
:10062000008C456E61626C650000000000030000F4
:10063000000C00000092DEADBEEF000000040000E0
:10064000000000000002000000014250534B5F4DCB
:100650006F7273650000000000030000000B0000D3
:10066000008C4250534B5F4D6F7273650000000069
:1006700000030000000C00000092DEADBEEF0000A1
:1006800000110000000000000002000000014E43C5
:10069000000000000003000000030000008C4E4337
:1006A0000000000000030000000C00000092DEAD1E
:1006B000BEEF000000160000000000000002000075
:1006C000000153687574646F776E000000000000CD
:1006D0000003000000090000008C53687574646F0B
:1006E000776E00000000000000030000000C000016
:1006F0000092DEADBEEF0000001700000000000019
:10070000000300000008000000980000001700002F
:1007100000010000000300000004000000A3DEADA3
:10072000BEEF000000020000000200000002000016
:100730000002000000015F5F6F7665727269646598
:10074000735F5F000000000000030000000B00006A
:1007500000B400000002737461747573000000003F
:100760000002000000015F5F73796D626F6C735F60
:100770005F000000000300000024000000BA2F66A4
:10078000726167656D656E7440302F5F5F6F76656F
:10079000726C61795F5F2F6D6F7273655F70696EE8
:1007A00073000000000300000020000000B42F666A
:1007B0007261676D656E7440312F5F5F6F76657231
:1007C0006C61795F5F2F6D6F727365403000000060
:1007D0000002000000015F5F6C6F63616C5F66691F
:1007E000787570735F5F00000000000000016672A2
:1007F00061676D656E7440310000000000015F5F4D
:100800006F7665726C61795F5F00000000016D6F4B
:100810007273654030000000000300000004000017
:10082000007B000000000000000200000002000049
:100830000002000000015F5F6F7665727269646597
:10084000735F5F0000000000000300000004000070
:1008500000B40000000000000002000000020000E0
:1008600000015F5F6669787570735F5F000000006C
:10087000000300000110000000C52F66726167656B
:100880006D656E7440303A7461726765743A300019
:100890002F667261676D656E7440312F5F5F6F7692
:1008A00065726C61795F5F2F6D6F72736540302F79
:1008B000456E61626C653A6770696F733A30002FFC
:1008C000667261676D656E7440312F5F5F6F76652C
:1008D000726C61795F5F2F6D6F72736540302F426C
:1008E00050534B5F4D6F7273653A6770696F733A1F
:1008F00030002F667261676D656E7440312F5F5FE7
:100900006F7665726C61795F5F2F6D6F7273654092
:10091000302F4E433A6770696F733A30002F66721A
:1009200061676D656E7440312F5F5F6F7665726CC5
:1009300061795F5F2F6D6F72736540302F536875FB
:1009400074646F776E3A6770696F733A30002F6620
:100950007261676D656E7440312F5F5F6F7665728F
:100960006C61795F5F2F6D6F72736540302F5368D4
:100970007574646F776E3A696E74657272757074AF
:100980002D706172656E743A300000000002000044
:10099000000200000009636F6D70617469626C652C
:1009A0000023616464726573732D63656C6C7300FE
:1009B0002373697A652D63656C6C730072656700DB
:1009C000746172676574006272636D2C70696E7316
:1009D000006272636D2C66756E6374696F6E00627F
:1009E00072636D2C70756C6C006C696E75782C7010
:1009F00068616E646C65007461726765742D706106
:100A000074680070696E6374726C2D6E616D6573CD
:100A10000070696E6374726C2D300073746174754C
:100A200073006C6162656C006770696F7300696E5A
:100A3000746572727570747300696E746572727524
:100A400070742D706172656E74006D6F72736500E5
:100A50006D6F7273655F70696E73006770696F00A8
:100A6000A7D911241FBECFEFCDBFDFE3DEBF00E06B
:100A70000CBFE7E6F6E285EC9FE301C08193EF3F10
:100A8000F907E0F3D9F311E2A0E0B0E2EEEDF8E50A
:100A900000E00BBF02C007900D92AE38B107D9F746
:100AA00026E2A0E9B1E201C01D92A736B207E1F744
:100AB0000E94C3060C944B2C0C9400006F927F9202
:100AC0009F92AF92BF92CF92DF92EF92FF920F93DD
:100AD0001F93CF93DF93CDB7DEB72C97CDBFDEBF8B
:100AE0008C017B013A01FC0116821782838181FF10
:100AF00019C1CE0101965C01F801D380F701D3FC46
:100B00002591D3FE21917F01222309F407C12532CB
:100B100049F4D3FC2591D3FE21917F01253211F0B8
:100B2000912C1BC0B801822F90E00E942F2B6301F3
:100B30003601E2CF222309F4F1C0622F70E089E58B
:100B400092E02C870E94FB2A2C85892B49F0F70123
:100B5000D3FC2591D3FE21917F0197FEEBCF0CC0F2
:100B6000233221F4F92DF0619F2EF1CF2C3639F488
:100B7000292D2068922EEBCF222309F4CFC0622FBB
:100B800070E082E592E02C870E94FB2A2C85892B5D
:100B900041F06301F4E0CF0ED11CB8018FE390E087
:100BA00012C0233641F0233789F0233521F5F92D82
:100BB000F1609F2E0BC0630122E0C20ED11CB80170
:100BC000F301808191810E942F2BB2CF630122E03B
:100BD000C20ED11CF30160807180F30190FC8591FD
:100BE00090FE81913F01882309F4A2CFB80190E0E3
:100BF0000E942F2BF2CF243611F0293639F56301EC
:100C000097FE09C0F4E0CF0ED11CF3016081718121
:100C1000828193810AC0F2E0CF0ED11CF301608182
:100C20007181882777FD8095982FF92DFF7E9F2E63
:100C300097FF09C090958095709561957F4F8F4F74
:100C40009F4FF0649F2E2AE030E038C02037A1F09B
:100C500040F42835D1F02F3609F060C028E030E0AC
:100C600019C0253719F0283751F058C0292D2F7E8B
:100C7000922E2AE030E00EC0892D8061982E992DA9
:100C80009462992E20E130E005C0E92DE4609E2EAB
:100C900020E132E0630197FE09C0F4E0CF0ED11CE1
:100CA000F301608171818281938108C0F2E0CF0EEF
:100CB000D11CF3016081718180E090E0A5010E9468
:100CC000A62B782E7A1896FE05C0B8018DE290E02A
:100CD0000E942F2B94FE16C0FE01E70DF11D8081AE
:100CE000803381F0B80180E390E00E942F2B92FEC8
:100CF00009C0292D2072822F90E0B801885A9F4F99
:100D00000E942F2B7A94F501E70DF11D8081B80127
:100D100090E00E942F2B7110F5CF0ACFF801868149
:100D2000978102C08FEF9FEF2C96CDBFDEBFDF9182
:100D3000CF911F910F91FF90EF90DF90CF90BF90D8
:100D4000AF909F907F906F90089580915000886041
:100D50008093500028ED93E08091510083FFFCCFF9
:100D600024BF90934000809140008330A9F783EE28
:100D7000809355008091500080618093500081E005
:100D8000809344000895CF93DF93CDB7DEB7CF545F
:100D9000D240CDBFDEBFC55BDD4F188219821A82FB
:100DA0001B82CB54D240C95BDD4F188219821A8254
:100DB0001B82C754D240CD5BDD4F188219821A8244
:100DC0001B82C354D2408E01015C1D4FF80110827A
:100DD00011821282138280E28093660680936106FC
:100DE000809386068093810680E1809386068093B7
:100DF000810687E08093A2000E94A5060E94010A56
:100E00008DE793E080934E2690934F260E941D0A13
:100E100080E090E00E94A40A0E94270B0E94CC0C64
:100E200080E090E280936326909364260E94750C84
:100E30009E012F5F3F4F690120934A2630934B2636
:100E400078940E94FD180E94D6080E949B0C65E0D1
:100E500021E030E080E090E0A901082E01C0440FBD
:100E60000A94EAF74093A4064FEF54E471E041502E
:100E700050407040E1F700C00000019688309105B5
:100E800059F787E090E0A901082E01C0440F0A94A9
:100E9000EAF74093A406EFEFF4E441E0E150F040BC
:100EA0004040E1F700C00000019768F7615091F6FB
:100EB00082ED90E20E94792B812C412C512C320141
:100EC0004BEDA42E40E2B42E50E2952E6AEEE62EB3
:100ED00060E2F62EA1C080919E218111D5C0C55B34
:100EE000DD4F88819981AA81BB81CB54D240892B67
:100EF0008A2B8B2B09F470C0F8948091C0239091B9
:100F0000C123A091C223B091C323F80180839183B0
:100F1000A283B38378940E94A70CCD5BDD4F6883D6
:100F200079838A839B83C354D240CD5BDD4F488154
:100F300059816A817B81C354D2408E01015C1D4F6F
:100F4000C15CDD4F88819981AA81BB81CF53D2409A
:100F5000481759076A077B0708F4F8C0CD5BDD4FD7
:100F600088819981AA81BB81C354D240C15CDD4F85
:100F7000488159816A817B81CF53D240841B950B74
:100F8000A60BB70BC95BDD4F88839983AA83BB830C
:100F9000C754D240C55BDD4F88819981AA81BB814E
:100FA000CB54D240C95BDD4F488159816A817B8136
:100FB000C754D240880F991FAA1FBB1F880F991FC3
:100FC000AA1FBB1F880F991FAA1FBB1F8417950755
:100FD000A607B70708F4D9C08091BB238111A4C02C
:100FE0008091D423811159C08091D32381115FC096
:100FF000D301C20188279078AF71BB278115904833
:10100000AF41B10509F49EC081E08093A6067FEF51
:10101000471A570A670A770A0E94CC0A882309F4FC
:101020005ACF0E94CF0A4FE350E0BC01CE0181505D
:101030009E4F0E94182B86E091E20E94792BC25CA1
:10104000DD4F1882CE53D240CE0181509E4F0E9478
:10105000381669ED70E2CE0181509E4F0E940F2B31
:10106000892B09F038CF0E944B0D9F938F93BF922D
:10107000AF920E94612B0F900F900F900F90809174
:101080009E21882309F42BCF80EE90E20E94792BD9
:101090009092650610929E2122CF1092D42380E078
:1010A0000E9482148091D323882309F4A1CFF8945D
:1010B00021E028253FEF2303C00111248C0D9D1D45
:1010C00080934A2690934B2680919C2160919D218C
:1010D00010929C2110929D211092D9231092DA2314
:1010E0001092DB231092DC231092D323789470E0CB
:1010F00048E0849F600D711D1124582D5303C001D9
:101100001124FE0131966F018E0F9F1FC15BDD4FD1
:101110002883CF54D2400E945B15C15BDD4F2881EC
:10112000CF54D240822E64CF1092BB2380E00E9425
:10113000D30DC55BDD4F688379838A839B83CB5452
:10114000D2404ECF81E08093A50661CFC15CDD4FD8
:10115000488159816A817B81CF53D240CD5BDD4F7D
:1011600088819981AA81BB81C354D2407F936F93B8
:101170005F934F93BF93AF939F938F93FF92EF92A1
:101180000E94612BCDBFDEBF27CF81E00E94D30D2F
:10119000C55BDD4F688379838A839B83CB54D240C0
:1011A0001BCF87E0E0EAF0E082830895E0E6F6E016
:1011B0008AE0818781E0828788E1808B82E0838773
:1011C00080E1818BE0E8F6E099E0918790E89287F2
:1011D00099E1978B90E49387868B08951F920F92E5
:1011E0000FB60F9211248F938091680680FD0BC07B
:1011F00080E18093A506109250268F910F900FBE2C
:101200000F901F90189580E18093A60681E080934F
:10121000D323109250268F910F900FBE0F901F90E6
:1012200018951F920F920FB60F9211240F931F93D0
:101230002F933F934F935F936F937F938F939F93DE
:10124000AF93BF938091680680FF11C0BF91AF91AB
:101250009F918F917F916F915F914F913F912F91CE
:101260001F910F910F900FBE0F901F90189580E265
:101270008093A5064FB7F894209108043091090493
:10128000C9012091252230912622D9014FBF4091DA
:10129000D9235091DA236091DB237091DC23452B15
:1012A000462B472B41F120E1209385064091D9231D
:1012B0005091DA236091DB237091DC238C019D0136
:1012C000041B150B260B370B0093D5231093D62345
:1012D0002093D7233093D8238093D9239093DA2374
:1012E000A093DB23B093DC2381E08093D42380E2BE
:1012F0008093A606ABCF8093D9239093DA23A09353
:10130000DB23B093DC2381E080935026F0CF1F9243
:101310000F920FB60F9211248F9381E080939E213C
:101320008F910F900FBE0F901F9018951F920F92E4
:101330000FB60F9211240F931F932F933F934F9348
:101340005F936F937F938F939F93AF93BF934FB7A9
:10135000F8942091080430910904C90120912522B4
:1013600030912622D9014FBF20E42093A506409159
:10137000C0235091C1236091C2237091C323452B98
:10138000462B472BA9F14091C0235091C123609176
:10139000C2237091C3238C019D01041B150B260BE6
:1013A000370B0093BC231093BD232093BE233093AF
:1013B000BF238093C0239093C123A093C223B093F3
:1013C000C32381E08093BB2380E48093A606BF9172
:1013D000AF919F918F917F916F915F914F913F91CD
:1013E0002F911F910F910F900FBE0F901F90189586
:1013F0008093C0239093C123A093C223B093C323AF
:10140000E3CFE0EAF6E08FEF86838183089521E061
:1014100030E0082E01C0220F0A94EAF7E0EAF6E075
:101420002583089521E030E0082E01C0220F0A94A0
:10143000EAF7E0EAF6E026830895E0E8F6E088E2DD
:10144000808B818BE0EAF4E084EF80878085886080
:10145000808780EA838708951F920F920FB60F92BC
:1014600011240BB60F922F933F938F939F93EF937B
:10147000FF9390E49093A5068091AA048093A12104
:1014800082FD10C083FD0EC086FF1BC080FF1FC001
:1014900081FD04C010929F211092A02183E08093CF
:1014A000A90411C09093A606FF91EF919F918F918F
:1014B0003F912F910F900BBE0F900FBE0F901F907A
:1014C000189587FD0BC080E48093A606EDCF92E0CF
:1014D0009093A90480648093AA04F5CF81FF10C083
:1014E00080919F219091A021811520E19207B0F475
:1014F000853E26E0920720F18FEF8093AC04CECF9B
:101500002091AC0480919F219091A021982F882751
:10151000822B80939F219093A021C0CF21E030E0C7
:1015200080E090E0E0914E26F0914F26E80FF91F01
:10153000E491E093AC0420939F213093A021AECF9F
:101540009C012F5F3F4FEECFE0E4F6E028E02583DB
:10155000808188608083E0EAF8E08EE2868388E913
:10156000878380E1838398E19483E0E8F6E0258334
:10157000808188608083E0EAFAE085EF86838CECE6
:101580008783948308959091A10895FFFCCF809361
:10159000A00880E090E008958091A42108958091B2
:1015A000A42180741092A42190E08B559E4D089543
:1015B0001F920F920FB60F9211240BB60F928F93BA
:1015C0009F93EF93FF938091A008E091A221F0E018
:1015D000EB55FE4D80838093A0088091A221E82FD7
:1015E000F0E0EB55FE4D90819D30A9F09A3099F0D6
:1015F0008F5F87FD0DC08093A221FF91EF919F9196
:101600008F910F900BBE0F900FBE0F901F901895EB
:101610001092A221F2CF10828093A421982F90746F
:101620009093A321809580748093A221E6CF1F928E
:101630000F920FB60F9211248F938091A00A80937E
:10164000A0088F910F900FBE0F901F901895E0E0AB
:10165000F6E087E0808B818B828B838B848B858BFC
:10166000868B878BE0E2F6E0808B818B828B82E039
:101670008093CA01E0E2F0E0859194911092CA0152
:10168000E0E0F2E021E020838487958786E0848390
:1016900010A280E181A320A780E481A720AB88E489
:1016A00081AB10AE11AE83E082830895FC0123600C
:1016B0002093020261834068408383818823E9F399
:1016C00081E0838380818068808383818823E9F33C
:1016D00081E083838481958108954F925F926F9218
:1016E0007F928F929F92AF92BF92CF92DF92EF92B2
:1016F000FF92CF935C01862E942E722EC12CD12C9A
:101700007601C0E0272D492D682DC5010E94560B9A
:10171000C80ED91EE11CF11CCF5FC03899F7A8EEA6
:10172000B3E0A70196010E9460286B017C0147E0AD
:10173000F694E794D794C7944A95D1F784E090E063
:101740000E94042C4B015C0180E090E00E94042C7C
:10175000711035C038EE432E33E0532E612C712CBE
:10176000C501B40126EF3FEF4FEF5FEF0E94322833
:101770002C0D3D1D4E1D5F1DCA01B9012AE030E050
:1017800040E050E00E943228C301B2010E94EC27E1
:1017900097FD18C02CE095958795779567952A95C4
:1017A000D1F7CF91FF90EF90DF90CF90BF90AF90A7
:1017B0009F908F907F906F905F904F9008952B0136
:1017C0003C01CECF6150704F8F4F9F4FE3CF8F9230
:1017D0009F92AF92BF92CF92DF92EF92FF92CF9300
:1017E000C12CD12C7601C0E020E141E060E088E32B
:1017F00092E00E94560BC80ED91EE11CF11C8FE32B
:101800009FE10197F1F700C00000CF5FC03861F79A
:10181000A0E1B7E2A70196010E9460284B015C019C
:1018200087E0B694A794979487948A95D1F7C12CB2
:10183000D12C7601C0E020E040E060E180E292E05F
:101840000E94560BC80ED91EE11CF11C8FE39FE1CC
:101850000197F1F700C00000CF5FC03861F7A0E149
:10186000B7E2A70196010E9460286B017C0197E016
:10187000F694E794D794C7949A95D1F7C818D908E5
:10188000EA08FB08B501A40184E090E00E940B2C5B
:101890002CE0F694E794D794C7942A95D1F7CC0C12
:1018A000DD1CEE1CFF1CB701A601440F551F661F6F
:1018B000771F440F551F661F771F4C0D5D1D6E1D52
:1018C0007F1DF4E07695679557954795FA95D1F782
:1018D00080E090E0CF91FF90EF90DF90CF90BF90AD
:1018E000AF909F908F900C940B2CCF92DF92EF9241
:1018F000FF9284E090E00E94042C6B017C0180E068
:1019000090E00E94042C9F938F937F936F93FF929C
:10191000EF92DF92CF9284EF90E29F938F930E9499
:10192000612B8DB79EB70A968DBF9EBFFF90EF903B
:10193000DF90CF900895E0E0F4E081E080838DE0D7
:10194000A0E4B0E013968C9383E0828308954FB7B0
:10195000F894E0E0F4E020853185B901209125225A
:1019600030912622C9014FBF08951F920F920FB6E2
:101970000F9211248F939F9380912522909126227C
:10198000019680932522909326229F918F910F900C
:101990000FBE0F901F9018950F931F93CF93DF9357
:1019A00087E0809332068093330607E212E260E01C
:1019B00070E0CB01C0E0D0E013C0BE0180E090E059
:1019C0000E9469292BED3FE049EC50E40E94F72981
:1019D00020E030E04AE453E40E94D0280E945A2AD2
:1019E00020E030E040E055E40E94F72920E030E0BC
:1019F00040E055E40E946C280E943829F801619368
:101A000071938F012196CA3CD105B9F680EE80937F
:101A100081011092000A8FEF90E08093260A909344
:101A2000270A85E08093200381E08093210398E0DA
:101A3000909322038093230380E88093000189ED33
:101A40008093120185E28093130184E991E08093F1
:101A500014019093150187E292E28093180190930C
:101A6000190110921A0188E380931C0183E080938E
:101A70001D0110921E0185EA80931001DF91CF9124
:101A80001F910F91089581E08093000A08950895B1
:101A90001092000A089580916726853CB9F487E684
:101AA00096E28F5F9F4309F088F480E090E0E7E6DC
:101AB000F6E205C02FE3EF3FF20709F030F431966C
:101AC00001962081253CB1F30895089580E090E0CF
:101AD0000895CF92DF92EF92FF920F931F93CF93CF
:101AE000DF931F92CDB7DEB7C12CD12C76014423F2
:101AF000C9F050E097018601000F111F221F331F0C
:101B00006B017C01E1E0CE22DD24EE24FF24C02A1B
:101B1000D12AE22AF32A96958795779567955F5F94
:101B20005413E8CF10E003C01F5F09F432C0212F27
:101B300030E0B901660F771FFB01E20FF31FEE0FD4
:101B4000FF1FEB58FD4F8491882319F1E4914E1348
:101B5000EBCFFB01E20FF31FEE0FFF1FEF58FD4F1E
:101B600085919591A591B491C816D906EA06FB0610
:101B7000D9F6FB01E20FF31FEE0FFF1FEA58FD4FEE
:101B8000849190E049830E94732B49811F5F09F083
:101B9000CECF0F90DF91CF911F910F91FF90EF90DB
:101BA000DF90CF9008954F925F926F927F928F92C5
:101BB0009F92AF92BF92CF92DF92EF92FF92CF931C
:101BC000DF9300D01F92CDB7DEB7813071F1F8946A
:101BD0008091BC239091BD23A091BE23B091BF23DF
:101BE0008093C4239093C523A093C623B093C723A7
:101BF00078948091D223813009F47BC108F417C115
:101C0000823009F42AC1833009F461C0282F2223CD
:101C100009F445C1C090C923D090CA23E090CB23DA
:101C2000F090CC23C701B60140C0F8941092BC23B9
:101C30001092BD231092BE231092BF231092C02396
:101C40001092C1231092C2231092C3237894109251
:101C5000D2236091CD237091CE238091CF23909198
:101C6000D0234091D1230E94690D1092C923109274
:101C7000CA231092CB231092CC231092CD23109222
:101C8000CE231092CF231092D0231092D123109202
:101C9000C82385E091E20E94792B6091C92370915D
:101CA000CA238091CB239091CC232496CDBFDEBF55
:101CB000DF91CF91FF90EF90DF90CF90BF90AF90EA
:101CC0009F908F907F906F905F904F90089580913C
:101CD0008806C090C923D090CA23E090CB23F0900F
:101CE000CC2386FF9AC14090C4235090C5236090B6
:101CF000C6237090C723C701B60126E030E040E05C
:101D000050E00E941028421653066406750608F437
:101D1000C6C3D701C601B695A7959795879548166E
:101D200059066A067B0608F4CFC246015701880CA3
:101D3000991CAA1CBB1CD501C4018C0D9D1DAE1D98
:101D4000BF1DB695A79597958795481659066A06BB
:101D50007B0608F475C3481459046A047B0408F42C
:101D60000BC5D501C401880F991FAA1FBB1F880F7F
:101D7000991FAA1FBB1F89839A83AB83BC83BC01B5
:101D8000CD0123E030E040E050E00E9410284216F0
:101D900053066406750608F079C482E08093D22366
:101DA000C701B60123E030E040E050E00E94102877
:101DB0002093C9233093CA234093CB235093CC2341
:101DC0002091C823222309F425C4B12C77E0C72E23
:101DD000D12CE12CF12CE3E0AE2E0EC0C092CD232D
:101DE000D092CE23E092CF23F092D023A092D123A1
:101DF000B394B21608F00EC4B0FEF0CF6091CD23BC
:101E00007091CE238091CF239091D0234091D12304
:101E10000E94690D1092CD231092CE231092CF23F1
:101E20001092D0231092D1232091C823E1CF80912A
:101E3000C4239091C523A091C623B091C72380935A
:101E4000C9239093CA23A093CB23B093CC2321E042
:101E50002093D223BC01CD0128CF80918806C09069
:101E6000C923D090CA23E090CB23F090CC2386FFE7
:101E70008FC08091C4239091C523A091C623B091B7
:101E8000C723B701A601769567955795479584179F
:101E90009507A607B70708F0DEC11092D223F89481
:101EA0001092BC231092BD231092BE231092BF2328
:101EB0001092C0231092C1231092C2231092C32308
:101EC00078941092D1231092CD231092CE231092A9
:101ED000CF231092D0231092C9231092CA231092BC
:101EE000CB231092CC231092C82360E070E0CB018A
:101EF000DCCEC090C923D090CA23E090CB23F090D1
:101F0000CC238090C4239090C523A090C623B0908A
:101F1000C723C701B60126E030E040E050E00E9450
:101F2000102882169306A406B50608F47EC2D701CF
:101F3000C601B695A7959795879588169906AA061E
:101F4000BB0608F00AC182E08093D223C701B60124
:101F500023E030E040E050E00E9410282093C923A5
:101F60003093CA234093CB235093CC238EE090E050
:101F7000A0E0B0E08093CD239093CE23A093CF2315
:101F8000B093D02384E08093D12369017A014ACEB3
:101F90008091C4239091C523A091C623B091C723FB
:101FA000B701A601769567955795479584179507CC
:101FB000A607B70708F471CF46015701880C991C92
:101FC000AA1CBB1CB501A4014C0D5D1D6E1D7F1D1F
:101FD000769567955795479584179507A607B70790
:101FE00008F063C28091CD239091CE23A091CF239E
:101FF000B091D023880F991FAA1FBB1F81608093C7
:10200000CD239093CE23A093CF23B093D023809160
:10201000D1238F5F8093D12305CE8090C4239090ED
:10202000C523A090C623B090C723C701B60126E000
:1020300030E040E050E00E94102882169306A4068B
:10204000B50608F42FC2D701C601B695A795979596
:10205000879588169906AA06BB0608F48EC1260144
:102060003701440C551C661C771CD301C2018C0D32
:102070009D1DAE1DBF1DB695A79597958795881692
:102080009906AA06BB0608F4DBC1C301B201660FBC
:10209000771F881F991F660F771F881F991F23E0DE
:1020A00030E040E050E00E94102882169306A4061B
:1020B000B50608F43BC3440C551C661C771C440C45
:1020C000551C661C771C4C185D086E087F087694BA
:1020D00067945794479484149504A604B70408F0B1
:1020E000B6C382E08093D2235091C8238091CD2340
:1020F0009091CE23A091CF23B091D0233091D123C2
:10210000552309F4A7C33F5F20E001C0342F880F97
:10211000991FAA1FBB1F20FF81602F5F41E0430F63
:102120002517A0F32091D223880F991FAA1FBB1F48
:10213000880F991FAA1FBB1F880F991FAA1FBB1FBB
:1021400087608093CD239093CE23A093CF23B09329
:10215000D0233D5F3093D1235ACD26013701440C63
:10216000551C661C771CD301C2018C0D9D1DAE1D34
:10217000BF1D89839A83AB83BC83B695A79597953A
:10218000879588169906AA06BB0608F496C084149B
:102190009504A604B70408F45AC2440C551C661CE6
:1021A000771C440C551C661C771CC301B20123E04C
:1021B00030E040E050E00E94102882169306A4060A
:1021C000B50608F447C24C185D086E087F0876947F
:1021D00067945794479484149504A604B70408F4AC
:1021E000C1C249815A816B817C81440F551F661F92
:1021F000771F440F551F661F771FC40ED51EE61E9E
:10220000F71EF694E794D794C7948C149D04AE04FB
:10221000BF0408F419C389819A81AB81BC81840F02
:10222000951FA61FB71FB695A795979587958816F2
:102230009906AA06BB0608F0A2C282E08093D223C8
:1022400087E191E29F938F930E94612B2091D2238B
:102250000F900F90DCCC46015701880C991CAA1CEA
:10226000BB1C240135014C0C5D1C6E1C7F1CB30192
:10227000A201769567955795479584179507A60708
:10228000B70708F063C18091CD239091CE23A09130
:10229000CF23B091D023880F991FAA1FBB1F809313
:1022A000CD239093CE23A093CF23B093D0238091BE
:1022B000D1238F5F8093D123B5CC83E08093D22349
:1022C00082E08093C823AECC82E08093D223C70102
:1022D000B60123E030E040E050E00E941028209357
:1022E000C9233093CA234093CB235093CC2320910E
:1022F000C8236091CD237091CE238091CF239091FC
:10230000D0234091D123222309F43EC2F12C20C0D6
:10231000DC01CB01880F991FAA1FBB1F880F991FD3
:10232000AA1FBB1F880F991FAA1FBB1F876080931E
:10233000CD239093CE23A093CF23B093D0234D5F92
:102340004093D123BC01CD01F394F21608F093C061
:10235000F0FEDECF0E94690D1092CD231092CE23A5
:102360001092CF231092D0231092D12340E060E04E
:1023700070E0CB012091C823E7CF82E08093D22385
:10238000C701B60123E030E040E050E00E94102891
:102390002093C9233093CA234093CB235093CC235B
:1023A0002091C8236091CD237091CE238091CF23BB
:1023B0009091D0234091D123222309F4E3C1F12C41
:1023C0001FC0DC01CB01880F991FAA1FBB1F880FFC
:1023D000991FAA1FBB1F880F991FAA1FBB1F8760C9
:1023E0008093CD239093CE23A093CF23B093D0237B
:1023F0004D5F4093D123BC01CD01F394F21630F52B
:10240000F0FEDFCF0E94690D1092CD231092CE23F3
:102410001092CF231092D0231092D12340E060E09D
:1024200070E0CB012091C823E8CF88E091E29F9330
:102430008F930E94612B1092D2230F900F902FCD7B
:102440008091C8238F5F8093C823ECCB2091D22347
:10245000DC01CB01880F991FAA1FBB1F81608093ED
:10246000CD239093CE23A093CF23B093D0234F5F5F
:102470004093D123CCCB2091D223DC01CB01880F18
:10248000991FAA1FBB1F8093CD239093CE23A093A7
:10249000CF23B093D0234F5F4093D123B8CB82E3B7
:1024A00091E2C5CF82E491E2C2CFB701A601440F09
:1024B000551F661F771F440F551F661F771F4C0D52
:1024C0005D1D6E1D7F1D7695679557954795841701
:1024D0009507A607B70708F4D3C0880C991CAA1C57
:1024E000BB1C880C991CAA1CBB1C8C189D08AE0830
:1024F000BF08B694A7949794879488159905AA0560
:10250000BB0508F010C18091CD239091CE23A091FE
:10251000CF23B091D023880F991FAA1FBB1F880F0C
:10252000991FAA1FBB1F880F991FAA1FBB1F876077
:102530008093CD239093CE23A093CF23B093D02329
:102540008091D1238D5F8093D1236CCBB701A601FD
:10255000440F551F661F771F440F551F661F771FB7
:102560004C0D5D1D6E1D7F1D7695679557954795A2
:1025700084179507A607B70708F485C0B501A4011D
:10258000440F551F661F771F440F551F661F771F87
:102590004C195D096E097F097695679557954795A2
:1025A00084179507A607B70708F4C3C0440C551C49
:1025B000661C771C440C551C661C771C4C0C5D1C5F
:1025C0006E1C7F1C769467945794479484159505E8
:1025D000A605B70508F435C1C80CD91CEA1CFB1CBC
:1025E000B701A601440F551F661F771F440F551FE3
:1025F000661F771F4C0D5D1D6E1D7F1D76956795BF
:102600005795479584179507A607B70718F086E2F0
:1026100091E20DCF6091CD237091CE238091CF2395
:102620009091D0234091D1230E94690D1092CD2327
:102630001092CE231092CF231092D0231092D12348
:1026400080E290E00E94732B2091D223E0CA8CE0BC
:1026500091E2EDCE82E08093D223C701B60123E060
:1026600030E040E050E00E9410282093C9233093CE
:10267000CA234093CB235093CC2380E191E2E2CD57
:102680008AE291E2D4CE8EE191E2D1CE89819A8123
:10269000AB81BC818C199D09AE09BF09B695A79580
:1026A00097958795481659066A067B0608F06EC00E
:1026B00082E08093D2234091C823442309F4DDC0F3
:1026C0006091CD237091CE238091CF239091D02320
:1026D0002091D1232F5F30E001C0252F660F771F97
:1026E000881F991F30FF61603F5F51E0520F341720
:1026F000A0F36093CD237093CE238093CF23909348
:10270000D0232093D123422F0E94690D1092CD2314
:102710001092CE231092CF231092D0231092D12367
:102720002091D22374CA8EE291E281CE86E491E2B6
:102730007ECE6091CD237091CE238091CF23909156
:10274000D0234091D1230E94690D1092CD23109285
:10275000CE231092CF231092D0231092D123209118
:10276000D22355CA82E08093D22385E490E00E9470
:10277000732B2091D2234BCA86E391E258CE8AE193
:1027800091E255CE22E064CE22E077CE8C0C9D1CE7
:10279000AE1CBF1C880C991CAA1CBB1C880C991C65
:1027A000AA1CBB1C8C0C9D1CAE1CBF1CB694A79411
:1027B00097948794481459046A047B0408F44FC022
:1027C00089819A81AB81BC81880F991FAA1FBB1F89
:1027D0008C0D9D1DAE1DBF1DB695A7959795879530
:1027E000481659066A067B06B8F582E08093D22324
:1027F0004091C8234423B1F16091CD237091CE2341
:102800008091CF239091D0232091D1232F5F30E06E
:1028100001C0252F660F771F881F991F30FF616049
:102820003F5F51E0520F3417A0F36093CD237093B4
:10283000CE238093CF239093D0232093D123422F74
:10284000F3CE82E291E2F3CD83E191E2F0CD8AE42E
:1028500091E2EDCD22E068CC8EE391E2E8CD8AE30F
:1028600091E2E5CD4091D1236091CD237091CE23AB
:102870008091CF239091D023D7CE4091D1236091E6
:10288000CD237091CE238091CF239091D0233CCF44
:10289000EF92FF920F931F93CF93DF937C018B01F5
:1028A0006115710529F1C0E0D0E008C08AE290E02E
:1028B0000E94732B2196C017D107D1F0FE01E7705B
:1028C000FF27E759FD4FE491DE01B695A795B69530
:1028D000A795B695A795AE0DBF1D8C91E82331F74E
:1028E0008FE590E00E94732B2196C017D10731F736
:1028F00086E091E2DF91CF911F910F91FF90EF90D1
:102900000C94792BF8948091D5239091D623A091A3
:10291000D723B091D823789420915026233009F4FE
:10292000BAC0D0F4213009F48CC0223009F057C06D
:102930004091DD235091DE236091DF237091E023ED
:1029400084179507A607B70708F052C083E0809365
:102950005026CB01BA012EC0243009F461C02530C5
:1029600009F03DC04091DD235091DE236091DF23CB
:102970007091E02384179507A607B70708F44CC0A9
:1029800020935026E0919D21F0E0EB58FC4F84917C
:1029900090919C21E0914A26F0914B26E90FF11D80
:1029A0009081892B808380919D218F5F80939D21D1
:1029B000CB01BA0120919D21283038F020919C2133
:1029C0002F5F20939C2110929D2120919C212F3FCD
:1029D00011F420939C2120E12093860608956091B4
:1029E000DD237091DE238091DF239091E023E2CFFD
:1029F00084E080935026E0919D21F0E0E359FC4F64
:102A0000849190919C21E0914A26F0914B26E90F08
:102A1000F11D90818923C6CF82E080935026B2CFEA
:102A20004091DD235091DE236091DF237091E023FC
:102A300084179507A607B70778F385E0809350269B
:102A4000A1CFAC01BD01440F551F661F771F480F72
:102A5000591F6A1F7B1F7695679557954795409339
:102A6000DD235093DE236093DF237093E02382E025
:102A70008093502680919C21E0914A26F0914B262C
:102A8000E80FF11D8081A0919D21B0E0A359BC4FBA
:102A90009C91892387CF4091DD235091DE23609163
:102AA000DF237091E02384179507A607B70708F086
:102AB0009FCF82E09ECFAF92BF92DF92EF92FF92C4
:102AC0000F931F93CF93DF931F921F92CDB7DEB763
:102AD0005C01FC0180818F70843091F188E791E284
:102AE0006A830E94792B1F921F921F921F926A8104
:102AF000062F10E01F926F93F50180811F928F9334
:102B00008DE591E29F938F930E94612BB801C501DF
:102B10000E944814CDBFDEBF0E94480D88E3809319
:102B2000A60680E2809386060F900F90DF91CF91EA
:102B30001F910F91FF90EF90DF90BF90AF9008959D
:102B40006E3008F492C0062F10E0C801089750E0DC
:102B500040E0E42FE770F0E0E759FD4FE491242FC7
:102B6000269526952695D501A20FB11D2C91E2231D
:102B700009F05F5F4F5F242F30E0281739074CF3CF
:102B8000F52EF0944FEF460F242F30E050E0281739
:102B90003907C4F0550FE42FE770F0E0E759FD4F17
:102BA000E491242F269526952695D501A20FB11DD7
:102BB0002C91E22309F051604150242F30E0281776
:102BC000390744F75F1143C00950110944E0F42E5E
:102BD00058E0D52E60E2E62E1AC0D092A506E0920B
:102BE000850680E00E94430D8AE290E00E94732BEC
:102BF000FFEF2BE281E0F15020408040E1F700C080
:102C00000000F3948F2D90E080179107DCF4EF2DF6
:102C1000E770F0E0E759FD4FE4918F2D869586959A
:102C20008695D501A80FB11D8C91E823B1F6D092FD
:102C3000A606E09286060E94480D8FE590E00E946D
:102C4000732BD6CF86E091E20E94792B65CF8EE47C
:102C500091E259836A830E94792B1F9259815F9375
:102C60001F92FF921F926A8146CF8AE691E238CF87
:102C70004F925F926F927F928F929F92AF92BF928C
:102C8000CF92DF92EF92FF920F931F93CF93DF9338
:102C900000D01F92CDB7DEB7FC0120812134B9F0FE
:102CA00001EF18EDC8012496CDBFDEBFDF91CF91B3
:102CB0001F910F91FF90EF90DF90CF90BF90AF905A
:102CC0009F908F907F906F905F904F9008950196A6
:102CD0000E94DD2A882309F47DC0813009F48AC06E
:102CE000823009F497C0833009F4A4C0843009F419
:102CF000B1C0853009F4B4C08630C1F1873009F421
:102D0000BFC0883009F4C2C0893009F4CFC08A300E
:102D100009F4DCC08B3009F4DFC08C3009F4ECC05E
:102D20008D3009F4F9C08E3009F4FCC08F3009F4FD
:102D300009C1803109F416C1813109F46CC101EF78
:102D400018ED21EF38ED4FEF5FEF5F934F933F9317
:102D50002F9387E891E29F938F930E94612B0F90AE
:102D60000F900F900F900F900F909CCF20E141E0BB
:102D700060E380E392E00E946D0B6B017C01F0E563
:102D8000CF1AF3ECDF0AE108F108C701B601660FBC
:102D9000771F881F991F660F771F881F991F660F5F
:102DA000771F881F991F6C0D7D1D8E1D9F1D25E0AF
:102DB00030E040E050E00E94322833584F4F5F4FE0
:102DC000CA01B9012AE030E040E050E00E94322818
:102DD0008901BBCF20E141E060E088E292E00E94FF
:102DE0006D0B6B017C01F0E5CF1AF3ECDF0AE10813
:102DF000F108CBCF20E141E068E088E292E00E9458
:102E00006D0B6B017C0180E5C81A83ECD80AE108E0
:102E1000F108BBCF20E141E060E180E392E00E9455
:102E20006D0B6B017C01E0E5CE1AE3ECDE0AE108F4
:102E3000F108ABCF20E141E068E180E392E00E943D
:102E40006D0B6B017C01F0E5CF1AF3ECDF0AE108B2
:102E5000F1089BCF20E141E060E280E392E0CFCF38
:102E600020E141E068E280E392E00E946D0B6B019B
:102E70007C01E0E5CE1AE3ECDE0AE108F10885CF3B
:102E800020E141E068E380E392E0B9CF20E141E056
:102E900060E480E392E00E946D0B6B017C01E0E551
:102EA000CE1AE3ECDE0AE108F1086FCF20E141E041
:102EB00068E480E392E00E946D0B6B017C01F0E519
:102EC000CF1AF3ECDF0AE108F1085FCF20E141E01F
:102ED00060E580E392E093CF20E141E068E580E3A4
:102EE00092E00E946D0B6B017C01E0E5CE1AE3ECF1
:102EF000DE0AE108F10849CF20E141E060E680E325
:102F000092E00E946D0B6B017C01F0E5CF1AF3ECAF
:102F1000DF0AE108F10839CF20E141E068E680E30B
:102F200092E06DCF20E141E060E780E392E00E9413
:102F30006D0B6B017C01E0E5CE1AE3ECDE0AE108E3
:102F4000F10823CF20E141E068E780E392E00E94AE
:102F50006D0B6B017C01F0E5CF1AF3ECDF0AE108A1
:102F6000F10813CF84E090E00E94042C2B013C0177
:102F7000EEE2F0E00591149120E040E060E088E3AB
:102F800092E00E946D0B24E630E040E050E00E94A9
:102F9000322866E077E785E090E00E94EC276983BD
:102FA0007A838B839C839801A8EEB3E00E9451281A
:102FB0004B015C018AE0C82ED12CE12CF12CC3011D
:102FC000B201A70196010E941028821A930AA40A4E
:102FD000B50AC501B401A70196010E941028A8EE08
:102FE000B3E00E94602820E030E446E050E00E9418
:102FF000102869817A818B819C810E9410282E5F24
:103000003A4244405109CA01B901A70196010E9400
:10301000102889019ACE20E040E060E180E292E051
:103020000E946D0B24E630E040E050E00E94322820
:1030300089018BCE9091E823992379F1E091E623E1
:10304000F091E7230190F081E02D9481891728F514
:10305000E093E423F093E523228133812E0F3F1F79
:10306000E217F30738F019C09081E90FF11DE2175C
:10307000F30778F491819430B9F792819813F4CFE3
:1030800093819613F1CFE093E423F093E52381E05D
:103090000895E093E423F093E52380E00895809180
:1030A00053268F770C94471FE091E623F091E72396
:1030B0000190F081E02D228133812E0F3F1FFC0112
:1030C0004081E40FF11DE217F30748F00BC0853093
:1030D00061F08081E80FF11DE217F30718F4818198
:1030E0008430A9F780E090E00895CF0108951F9300
:1030F000CF93DF93182F0E941A18882351F1C091A3
:10310000E423D091E52308C04C815D816B818A81E5
:103110000E94671F8823E9F0CE010E945418EC0139
:10312000009791F7E091E623F091E723812F90E05B
:10313000880F991F0280F381E02DE80FF91F01909D
:10314000F081E02D0190F081E02DDF91CF911F9172
:10315000199480E0DF91CF911F910895FF920F9312
:103160001F93CF93DF93C82F60E00E941A1881113C
:1031700008C0F12C8F2DDF91CF911F910F91FF90FF
:103180000895E091E623F091E7232C2F30E0220F01
:10319000331F0280F381E02DE20FF31F00811181C4
:1031A000D8011696ED91FC9117971995682F8C2FE1
:1031B0000E941A18F82E8823E1F2C091E423D091DE
:1031C000E52303C08A810E94E820CE010E945418A2
:1031D000EC010097B9F7D8011296ED91FC91139785
:1031E00019958F2DDF91CF911F910F91FF90089529
:1031F0008091E4239091E52308950C94DB1ECF93F6
:103200008091E8238823C9F0E091E623F091E72339
:103210000190F081E02D8481882379F0C0E08C2F2B
:103220000E94AE18CF5FE091E623F091E723019072
:10323000F081E02D8481C81790F31092E82381E09B
:1032400090E08093EB239093EC23CF9108950E941C
:10325000AA1E0C94FF18CF938091E823882349F18C
:10326000A091E623B091E723ED91FC911197848121
:103270008823F9F0C0E08C2F90E0880F991F1296F8
:10328000ED91FC911397E80FF91F0190F081E02D6B
:103290000084F185E02D309729F01995A091E6235F
:1032A000B091E723CF5FED91FC9111978481C8170E
:1032B00010F3CF910895FF920F931F93CF93DF9355
:1032C00010925B2610925C2610925D2610925E266C
:1032D00010925F26109260264091512647FD30C023
:1032E000842F8076C1F5242F2F7109F092C0809130
:1032F0005226833009F486C008F4BAC0853009F438
:103300002BC1893009F07EC08091572690915826B4
:10331000892B09F50E944A1F882379F08091532652
:10332000909154269927E0914C20F0914D202189CD
:1033300030E02817390708F0D3C1409151260BC05F
:103340008091572690915826009709F45BC0242F4E
:10335000207609F4A8C0242F2F712130E9F4809140
:10336000E823882309F44EC0C0915526D0915626F3
:103370000091E6231091E723D801ED91FC9184811F
:10338000C81708F03FC060E08C2F0E941A18811106
:1033900006C1209151262F712230A1F58091E8239A
:1033A000882381F1E091E623F091E723A081B181A8
:1033B00014968C91882331F110E010C0EC81FD81CE
:1033C000199581114EC01F5FE091E623F091E7232C
:1033D000A081B18114968C911817A0F4212F30E0B0
:1033E000220F331F0280F381E02DE20FF31FC08113
:1033F000D181EE81FF811995682F812F0E941A18C3
:103400008111DCCF80E0DF91CF911F910F91FF9070
:103410000895213009F45FC0223009F0BDCF8091BA
:103420005226813009F4A7C0833009F0B7CF8091CC
:10343000572690915826892B09F08DCF80915326DD
:1034400090915426892B09F086CF809155260E94B1
:10345000A220809155260E940621F82EFF2009F413
:103460006CCF81E0DF91CF911F910F91FF90089574
:10347000813041F68091572690915826892B09F08A
:103480006ACF8091532690915426019709F063CF1B
:103490008091EB239091EC238D7F8093EB2390938D
:1034A000EC2381E0DFCF242F2F71C1F5209152262C
:1034B000263009F4E2C0283009F4D4C02111A2CF8B
:1034C000029709F048CF62E070E08BEE93E20E9431
:1034D0005E1F81E0C7CF809152268B3009F03FCF2D
:1034E0008091572690915826892B09F034CF8091EE
:1034F000E823882309F42FCF10915526C091532635
:10350000D0915426812F0E94AE18882309F415CF3C
:103510006C2F812F0E947718F82EA0CF213009F44C
:1035200063C0223009F038CF20915226211136CFC6
:10353000029709F010CF809155260E94C61F90E097
:103540008093E2239093E32362E070E082EE93E2C3
:103550000E945E1F81E086CF809157269091582669
:10356000892B09F0F8CE8FE498E180935D26909343
:103570005E2681E077CF8091572690915826892B3F
:1035800009F0E9CE8091532690915426892B09F0B9
:10359000E2CE809155260E94E11FF82E5FCFCE012A
:1035A0009927880F991FD8011296ED91FC911397D6
:1035B000E80FF91F00811181D8011696ED91FC9159
:1035C00017971995682F8C2F0E941A18882309F4D1
:1035D000E0CED8011496ED91FC91159719958823AA
:1035E00009F4D7CE81E03ECF209152262A3009F04F
:1035F000B6CE019709F0AFCE8091E823882309F475
:10360000AACEC0915526D09156260091E62310915E
:10361000E723D801ED91FC918481C81708F09BCE77
:1036200060E08C2F0E941A18F82E882309F485CEAA
:10363000DD27CC0FDD1FD8011296ED91FC91139779
:10364000EC0FFD1F0190F081E02D0680F781E02D49
:1036500019958093EA2361E070E08AEE93E20E947C
:103660005E1FFCCE019709F076CE61E070E088EE37
:1036700093E20E945E1F81E0F5CE209153263091A7
:103680005426832F99278230910509F491C00CF4B8
:103690005FC08330910509F468C00F9709F05BCED5
:1036A0008091502090915120009709F454CEDC0174
:1036B00012966D917C9113970E945E1F8091572600
:1036C0009091582620915B2630915C2682179307B3
:1036D00008F0C7CE80935B2690935C2681E0C2CE33
:1036E0000E94FF1880915326909154268093E823DE
:1036F000882309F4B6CE99278150904C880F991FE2
:10370000880F991FE0914E20F0914F20E80FF91F8C
:10371000E093E623F093E7230190F081E02D84818C
:10372000882309F49ECEC0E060E08C2F0E947718B9
:10373000882309F402CECF5FE091E623F091E723DE
:103740000190F081E02D8481C81770F381E08ACE6A
:10375000019709F000CE80914C2090914D20DC0122
:103760006C9170E00E945E1FA9CF33272130310594
:1037700009F446C0F0F12230310509F0ECCD4CE0FF
:103780002CE230E2A0E1B0E2F901819190E08D936A
:103790009D938E2F821B8417C0F3440F4E5F40937E
:1037A0000E20642F70E08EE090E20E945E1F86CFB4
:1037B000E0914C20F0914D208189281708F0CBCD65
:1037C0003327220F331F220F331FE0914E20F09139
:1037D0004F20E20FF31F80819181FC016281738190
:1037E0000E945E1FE0915926F0915A2682E0818363
:1037F00065CF64E070E088E490E20E945E1F5ECFD7
:103800004EE029E330E2BECF0F93E8ECF4E0808194
:103810008F7D808380818F7D8083E0EFF4E202E002
:1038200005931092F2241092F32400E2069300E430
:103830000693E8EEF4E200E2069300E406931092A9
:103840005D2610925E2610925F26109260261092DE
:103850005B2610925C261092D9240F9108950F9345
:1038600085E08093D924E1EFF4E204E00593E9EEEA
:10387000F4E204E005930F9108950F9383E08093A1
:10388000D9241092F2241092F324E0EFF4E202E043
:1038900006930F910895E0915D26F0915E26309792
:1038A00009F0199408950F93CF93DF938091D92451
:1038B000833009F466C02091D5243091D624C0917C
:1038C0005B26D0915C26C21BD30B69F58091D7246F
:1038D0009091D824820F931F8093D7249093D8245B
:1038E00040915726509158268417950709F43EC0F9
:1038F0008091F02381113AC0E0915F26F09160261B
:10390000309739F01995811108C02091D524309154
:10391000D62481E08093F0230DC0C0915B26D09126
:103920005C2620E030E0C034D10598F31092F023FB
:10393000C0E4D0E0C093F224D093F32480915926C0
:1039400090915A26820F931F8093F4249093F5242C
:103950002C0F3D1F2093D5243093D624E0EFF4E2C2
:1039600002E00693DF91CF910F91089584E0809358
:10397000D924E8EEF4E202E00693DF91CF910F91B3
:1039800008950E944B1CDF91CF910F910C94041C61
:10399000282F2F7030E0220F331F992787FD909535
:1039A0008827990F881F9927280F391F225031091E
:1039B000C901880F991F880F991F880F991F820FBF
:1039C000931F8F589B4D0895EF92FF920F93CF93C3
:1039D000DF931F92CDB7DEB78091CC0480FD08C085
:1039E00080E00F90DF91CF910F91FF90EF900895BD
:1039F00081E08093CC04E8EEF4E200E80693E0EF87
:103A0000F4E200E806938093CA0468EEE62E64E2CE
:103A1000F62EF70100E106938091D924882331F036
:103A20008350823008F445C00E94041C8091EA242F
:103A30009091EB24089741F081E00F90DF91CF91B6
:103A40000F91FF90EF90089588E0E5E9F4E2A1E599
:103A5000B6E201900D928A95E1F78091C8048062E8
:103A60008093C8048091C80480628093C8040E9437
:103A70005B19882309F19091512697FD21C020916F
:103A8000572630915826232B79F01092D724109284
:103A9000D8241092D5241092D62491E09093D92462
:103AA000F70102E006939DCF89830E943D1C898126
:103AB00098CF0E944B1CB8CF0E942F1C81E091CF61
:103AC0001092D7241092D8241092D5241092D62484
:103AD00092E09093D92489830E94531C898181CFDD
:103AE000BF92CF92DF92EF92FF920F931F93CF93EB
:103AF000DF93B82E0E94C81C8C01CB2DCF708B2D6C
:103B0000881F8827881FD0E0CC0FDD1FC80FD11D6C
:103B1000CC0FDD1FCC0FDD1FCC0FDD1FC851DB4DDF
:103B2000E981E770E150E73008F080C0F0E0EE0F87
:103B3000FF1FEC53FF4DC080D18081117DC0EA8012
:103B4000FB80D8018C9182FDBEC0F80125813681B1
:103B50002E0D3F1D258336830380F481E02DE2176F
:103B6000F30708F45DC02E813F812E153F05F9F063
:103B7000F801808180FF4AC0D8018C918E7F8C93A0
:103B80001796ED91FC911897309709F43FC0159660
:103B90006D917C9116974B2D80E0DF91CF911F9115
:103BA0000F91FF90EF90DF90CF90BF901994D801C4
:103BB00015968D919C911697E817F90709F4ADC0F9
:103BC000E81BF90BE115B4E0FB0708F4BAC0EFEF0E
:103BD000F3E0CF01B6010E94FC27E81BF90B1A8223
:103BE0001B82EC15FD0508F09CC0F8018081846003
:103BF0008083F0E4BF9EC00111248F549C4D8C83C0
:103C00009D83CE82DF82FE0102E00693DF91CF9199
:103C10001F910F91FF90EF90DF90CF90BF9008958C
:103C2000D8011596ED93FC9316979DCF78E0C72E9B
:103C3000D12C882309F483CF2E813F81D80115969A
:103C40008D919C911697280F391F15962D933C93B3
:103C5000169713968D919C9114972817390709F49C
:103C60004EC0FC01E21BF30B9F012115F4E03F075E
:103C700040F02FEF33E0C901B6010E94FC27281B5A
:103C8000390BD8018C9181FF4AC0C901B6010E944D
:103C9000FC2741E0892B09F05BC0942FF80180815B
:103CA00090FB81F980831E821F822A833B8381815E
:103CB000928125813681820F931F8C839D83FE0123
:103CC00002E00693A3CF1196ED91FC911297159601
:103CD0002D913C91169713968D919C911497B60156
:103CE0000E94FC27B0E4BB9EB00111246F547C4DB0
:103CF000AC01CF01820F931F0E94062B26CFD80163
:103D00008C9181FF37CF8D7F8C931E821F821A8208
:103D10001B82FE0102E0069379CF8C912BCF90E0BD
:103D2000BDCFD80111968D919C91129715962D912A
:103D30003C911697820F931F8C839D83EE83FF83A4
:103D400062CFCF01B6010E94FC27E81BF90B47CFD9
:103D500040E0A3CFCF93CFB7F894E1ECF4E08081BB
:103D60008E7F80831092C00410820E946A23CFBF8E
:103D7000CF91089580E008959FB7F894EAECF4E0BD
:103D800080E4808380E28083E1ECF4E080818160E4
:103D90008083A9ECB4E08C9182608C93E8ECF4E031
:103DA0008081806480838C9181608C938081806825
:103DB00080839FBF0895CF938091C00480648093D7
:103DC000C004CFB7F8941092E9241092F124109215
:103DD000F924109201251092092510921125809145
:103DE00071248E7F8093712480917A248E7F8093BA
:103DF0007A24809183248E7F8093832480918C24E5
:103E00008E7F80938C246AE170E082E00E941C2304
:103E10008F3F99F18093FA046BE170E082E00E9499
:103E20001C238F3F09F48FE18093FB048091C00431
:103E300082608093C0048091C00480688093C00435
:103E40008091C00480618093C00488EE94E28093E6
:103E5000C6049093C7048091C00480628093C0041C
:103E60008FEF8093C5048091C80481608093C8045B
:103E70000E94BC1ECFBFCF9108958FE1CBCFE1EC64
:103E8000F4E080818E7F8083089580E008958093A0
:103E9000C30408958091C3040895809118259091DA
:103EA0001925089580E090E00895E1ECF4E0808128
:103EB0008B7F8083808184608083089580935926DE
:103EC00090935A2660935B2670935C260895E82FA2
:103ED000EF70F0E0EE0FFF1F992787FD9095882780
:103EE000990F881F9927E80FF91FEE0FFF1FEE0F9C
:103EF000FF1FEE0FFF1FE851FB4D8181807C11F009
:103F000080E008956370613069F1E8F080E840383E
:103F1000510591F1D0F44032510591F140345105F1
:103F200069F14031510501F120E0118296E0908362
:103F3000822B81838181807C803CC1F08181806281
:103F4000818381E0089580E4E2CF411592E0590732
:103F5000D9F04F3F93E05907A9F04115514021F79F
:103F600025E0E3CF80ECD3CF21E0DFCF81818770E4
:103F7000873021F781E0089524E0D7CF23E0D5CF23
:103F800022E0D3CF27E0D1CF26E0CFCFE82FEF70CC
:103F9000F0E0EE0FFF1F992787FD90958827990F76
:103FA000881F9927E80FF91FEE0FFF1FEE0FFF1F65
:103FB000EE0FFF1FE851FB4D818182FB882780F9BE
:103FC0000895E82FEF70F0E0EE0FFF1F282F332742
:103FD00027FD30952227330F221F3327E20FF31FCF
:103FE000EE0FFF1FEE0FFF1FEE0FFF1FE851FB4DFF
:103FF000918192FF09C091819B7F91830E94C81C8F
:10400000DC012C9120FD02C081E008952E7F2C93CD
:104010001796ED91FC911897199581E00895BF923C
:10402000CF92DF92EF92FF920F931F93CF93DF9384
:104030001F92CDB7DEB7B82E6A01790169830E945D
:10404000C81C9C01EB2DEF704B2D441F4427441FCF
:10405000F0E0EE0FFF1FE40FF11DEE0FFF1FEE0F5C
:10406000FF1FEE0FFF1FE851FB4D8181807C6981AE
:10407000882309F43EC08181807C803C19F08181D5
:1040800082FD37C09FB7F894D9018C9180FD3EC066
:104090008160D9018C939FBFD9011196CD92DC929A
:1040A00012971396ED92FC92149715961D921C92FE
:1040B000169717960D931C93189791E0611104C001
:1040C000E114F10409F090E0D9018C9190FB81F9A1
:1040D0008B7F8C93411106C08181807C803CC9F02C
:1040E00012821382168217828B2D0E94701D41E06E
:1040F00001C040E0842F0F90DF91CF911F910F916D
:10410000FF90EF90DF90CF90BF9008959FBF40E069
:10411000F1CFA181A770A150A73088F4B0E0AA0F19
:10412000BB1FAC53BF4D6D917C91C7010E94FC2712
:10413000892BB1F2F90180818E7F8083DBCF68E02B
:1041400070E0F3CFFF920F931F93CF93DF93182F5D
:10415000C82FCF70F82EFF1CFF24FF1CD0E0CC0F1F
:10416000DD1FCF0DD11DCC0FDD1FCC0FDD1FCC0F00
:10417000DD1FC851DB4D0E94C81CDC01FE0102E0BE
:1041800005938C9180FF14C08E7F8C931796ED91D0
:10419000FC911897309761F0F11010C06A817B8113
:1041A000412F81E0DF91CF911F910F91FF901994E2
:1041B000DF91CF911F910F91FF9008956E817F81C4
:1041C000412F81E0DF91CF911F910F91FF901994C2
:1041D000CF93C82F0E94A220EC2FEF70F0E0EE0FDB
:1041E000FF1F8C2F992787FD90958827990F881F8F
:1041F0009927E80FF91FEE0FFF1FEE0FFF1FEE0FBD
:10420000FF1FE851FB4D1182CF9108950F93E82FC6
:10421000EF70F0E0EE0FFF1F282F332727FD3095BA
:104220002227330F221F3327E20FF31FEE0FFF1F4A
:10423000EE0FFF1FEE0FFF1FE851FB4D91819460C1
:10424000918301E006930E94A22081E00F910895DE
:104250000F931F93CF93DF938B01C82FCF70D0E0C4
:10426000CC0FDD1F282F332727FD30952227330F52
:10427000221F3327C20FD31FCC0FDD1FCC0FDD1F32
:10428000CC0FDD1FC851DB4D0E94C81C298122FFC5
:1042900014C0FC01208120FD0AC021602083078317
:1042A000108781E0DF91CF911F910F91089580E0F9
:1042B000DF91CF911F910F910895F801199581E039
:1042C000DF91CF911F910F9108951F920F920FB61A
:1042D0000F9211240BB60F920F932F933F934F938E
:1042E0005F936F937F938F939F93AF93BF93EF935E
:1042F000FF938091CB0487FD3AC08091CB0482FF6D
:104300001BC084E08093CA048091F02486FD49C0DC
:10431000FF91EF91BF91AF919F918F917F916F919D
:104320005F914F913F912F910F910F900BBE0F9086
:104330000FBE0F901F9018958091CB0481FF1DC078
:1043400082E08093CA048091E82486FFE1CF8091C7
:10435000CC0481FDDDCF0E94E41C8111D9CF809176
:10436000D924823009F45CC0833091F629C080E8FA
:104370008093CA040E942B19CBCF8091CB0484FD7B
:1043800028C08091CB0486FD08C08091CB0485FFB6
:10439000BFCF80E28093CA04BBCF80E48093CA047D
:1043A000B7CF8091CC0481FDB3CF0E94E41C811172
:1043B000AFCF8091D924813081F1843009F0A8CF2A
:1043C000E1EFF4E204E00593E9EEF4E204E00593A2
:1043D0009FCF80E18093CA0481E00E94A22081E8FF
:1043E0000E94A2200E94FF181092C3041092E92498
:1043F00096E09093E82483E48093E9241092F124DA
:104400009093F0248093F12485E994E28093EC2446
:104410009093ED240E94041C7BCF0E943D1C78CF1A
:1044200084E08093D924E8EEF4E202E0069370CFB2
:104430001F920F920FB60F9211240BB60F92EF92AC
:10444000FF920F931F932F933F934F935F936F931D
:104450007F938F939F93AF93BF93CF93DF93EF930C
:10446000FF938091CC0481FF5AC082E08093CC04FA
:104470008091C504C8EED4E28195880FFE01E81B47
:10448000F10920813181285E344236952795369591
:10449000279536952795822F869520FD3EC090E082
:1044A000890FE82FEF70F0E0EE0FFF1F282F332762
:1044B00027FD30952227330F221F3327E20FF31FEA
:1044C000EE0FFF1FEE0FFF1FEE0FFF1FE851FB4D1A
:1044D000908195FF09C000E20693882331F180386E
:1044E00009F460C00E94701DFF91EF91DF91CF91A0
:1044F000BF91AF919F918F917F916F915F914F91FC
:104500003F912F911F910F91FF90EF900F900BBE55
:104510000F900FBE0F901F90189590E8C1CF0E948A
:10452000E41C882309F4A1CFDFCF8091D924843003
:1045300009F458C0E090EA24F090EB2400915B2647
:1045400010915C268091D5249091D6249C012E0D4B
:104550003F1D0217130748F57801E81AF90A209160
:10456000592630915A26A70165E974E2820F931FFC
:104570000E94062B0093D5241093D62480E4E816DD
:10458000F104A9F000935B2610935C26E0915F266E
:10459000F0916026309719F01995882301F10E9457
:1045A0003D1CA2CF0E94531C9FCF8901D8CF809180
:1045B000D7249091D824800F911F209157263091B5
:1045C000582682179307F0F680915B2690915C261F
:1045D0008017910761F0FE0102E0069385CF0E94EB
:1045E0002F1C82CF0E944B1C0E94041C7DCFE091A7
:1045F0005F26F0916026309791F31995882379F31F
:104600008091D7249091D8242091D5243091D6241C
:10461000820F931F8093D7249093D8241092D5248F
:104620001092D624D8CF982F9F7021F081E093303C
:1046300008F4089580E008954091CA01E62FF72F0D
:104640008093CA0184914093CA0108958FEF8093AB
:104650007000809371008093720080937300809348
:104660007400809375008093760008959FB7F89446
:10467000E82FF0E0E059FF4F60958081862380832A
:104680009FBF08959FB7F894E82FF0E0E059FF4FDF
:104690008081862B80839FBF08958630C9F063E0B8
:1046A0008091510081FD0CC09FB7F894809150001B
:1046B0008260809350009FBF8091510081FFFCCFAA
:1046C00084E490E00E94732360E480E00C9436233D
:1046D0006BE1E6CF60E480E00E94422360E084E486
:1046E00090E00C9473231BBEFC0128ED24BF608373
:1046F00008951092322610923E2610923F2681EAAB
:104700008093342680E280933526109236261092CC
:104710003726109238261092392682E090E0809356
:104720003A2690933B2610923C2610923D2680E03C
:1047300091EEA0E0B0E08093422690934326A093B0
:104740004426B0934526109246261092472688E0CC
:1047500080934826809132268F5F8093322681E0B5
:104760000895809132268150809332260895809159
:104770003126815080933126809131261092302647
:10478000089580E0089580E008958091512687FD86
:1047900005C080768032D9F080E00895807680323E
:1047A000D9F7809152268132B9F78091572690919E
:1047B00058268730910581F722E436E22093592666
:1047C00030935A2680935B2690935C2606C0809196
:1047D0005226803221F08232F9F681E008958091EC
:1047E00057269091582687309105B1F62DEF33E288
:1047F00020935D2630935E26DFCF0895CF92DF921F
:10480000EF92FF920F931F93CF93DF931F92CDB739
:10481000DEB780911F25882351F00F90DF91CF9153
:104820001F910F91FF90EF90DF90CF9008950E941D
:10483000451F0091202510912125811143C00E9420
:104840004D1F0817190749F3EFB6F894F090222589
:10485000CF2CD12C8601000F111FF801ED5DFA4D10
:1048600080819181892B09F43FC010921C25109200
:104870001D2580911E2581112CC081E0F11080E062
:104880008093222581E080931F25EFBE0D5D1A4D98
:10489000F8018081918161E08034910509F447C07D
:1048A00069830E94451F6981882309F459C00E94C9
:1048B000521F8093202590932125F801208131817A
:1048C00069813CC00E94521F0817190709F0BCCF2C
:1048D000A4CF81E090E0FF2011F080E090E06C0137
:1048E0008C01000F111FCECF80911C2590911D25AA
:1048F000019680931C2590931D250E94451F8111D0
:1049000007C080911C2590911D258436910568F083
:104910000E94451F882309F4A8CF80911C259091FF
:104920001D258032934008F0A0CFEFBE76CF60E027
:10493000109220251092212520E430E0A6010024C9
:10494000569547950794569547950794542F402DB3
:10495000485D5A4D0CEB14E281E80E940F205DCFB8
:1049600069830E944D1F8093202590932125F80193
:10497000208131816981E2CF8111089580912225C2
:10498000E1E0F0E081110CC0EE0FFF1FED5DFA4D8C
:104990001082118210921E2510921F250C94FE2366
:1049A000E0E0F0E0F1CF0C94FE230F931F93909181
:1049B000402691111EC040913E2650913F262091E5
:1049C0003C2630913D264217530799F020913E2610
:1049D00030913F2620933C2630933D260CEF14E285
:1049E0002AE030E044E356E260E00E940F2080932A
:1049F00040261F910F910895842F109240262091F8
:104A00003E2630913F26237820933E2630933F2642
:104A1000ECE3F6E2208131812378208331830C940A
:104A2000D5242FB7F894811110C080913E26909123
:104A30003F26609570956823792360933E26709396
:104A40003F262FBF82E80C94D52480913E2690917A
:104A50003F26862B972B80933E2690933F262FBF91
:104A600082E80C94D52461E070E00C94112562E09A
:104A700070E00C94112560E170E081E00C94112548
:104A800060E270E081E00C94112560E470E081E068
:104A90000C941125862F61E070E00C941125862F6F
:104AA00062E070E00C94112560E170E081E00C940C
:104AB000112560E270E081E00C94112560E470E063
:104AC00081E00C9411254FB7F8942091A9253091DD
:104AD000AA25E091AB25F0E0EE0FFF1FE455FA4D5B
:104AE000808191814FBF821B930B089580E00C94CD
:104AF00063250E94632521E0892B09F420E0822FA1
:104B000008950F931F93CF93DF934FB7F89450916D
:104B1000AB258091A825811110C02091A925309145
:104B2000AA25C52FD0E0FE01EE0FFF1FE455FA4D78
:104B3000808191812817390738F44FBF80E0DF91D9
:104B4000CF911F910F9108951092A9251092AA2537
:104B500081E0511122C08093AB2581E08093A8258C
:104B60004FBF80E00E947925AE01002456954795FD
:104B70000794569547950794542F402D40555A4D0C
:104B800006E016E220E430E061E082E00E940F20BF
:104B9000DF91CF911F910F91089580E0DCCF1092AB
:104BA000312610921F2510921E2510922225109258
:104BB0002325109224251092252510922625109247
:104BC0002025109221250E94FE231092A8251092E4
:104BD000AB251092AC251092AD251092AE25109207
:104BE000AF251092A9251092AA250E94812588231D
:104BF00049F0909131269F5F909331269091312614
:104C0000913009F008959093302608950F931F93E3
:104C1000942F81112AC08091AB25E1E0811128C039
:104C20006115710569F0F0E0EE0FFF1FE455FA4DD4
:104C3000608371831092A8251F910F910C94812598
:104C40004E2F50E00024569547950794569547956A
:104C50000794542F402D40555A4D06E016E220E4AB
:104C600030E061E0892F0E940F201F910F9108957D
:104C7000E0E061157105B9F6E3CF80E00C94792589
:104C80001F93CF93DF9311E080914826893009F07C
:104C900010E080E090E0AFB7F8942091A925309122
:104CA000AA254091AB2550E0FA01EE0FFF1FE45515
:104CB000FA4D60817181AFBF2617370750F0209100
:104CC00030262111E8CF80E090E0DF91CF911F9155
:104CD0000895FA010024F695E7950794F695E7956F
:104CE0000794FE2FE02DE20FF31FE055FA4D4081AF
:104CF000EC01C42B2F5F3F4F2093A9253093AA25A9
:104D00000E948125112321F09C2F882710E0C3CF1A
:104D1000CE01DF91CF911F91089580E00C94402641
:104D2000EF92FF920F931F93CF93DF937B018A0142
:104D3000AFB7F8942091A9253091AA254091AB25D1
:104D400050E0CA01880F991FFC01E455FA4D6081BB
:104D50007181AFBF2617370760F08091302681112F
:104D6000E7CFC801DF91CF911F910F91FF90EF9096
:104D70000895FC01E455FA4D80819181821B930BCB
:104D8000E8018017910708F4EC01BA010024769538
:104D900067950794769567950794762F602D620F37
:104DA000731F60557A4DAE01C7010E94062B80919A
:104DB000A9259091AA258C0F9D1F8093A9259093DA
:104DC000AA25EC0EFD1E0C1B1D0B0E948125011552
:104DD000110509F0ADCF80E090E0DF91CF911F91F8
:104DE0000F91FF90EF900895AB01BC0180E00C940F
:104DF00090264FB7F89480912225E82FF0E0EE0F2F
:104E0000FF1FED5DFA4D208131812034310531F0F5
:104E100080E490E0821B930B4FBF089590911F2573
:104E200091110FC090911E2591110BC091E09093AC
:104E30001E25811190E09093222580E490E04FBFE1
:104E4000089580E090E04FBF089580E00C94F9262B
:104E50000E94F92621E0892B09F420E0822F089591
:104E600080E00C9428271F93CF93DF93EB0111E090
:104E700080914826893009F010E080E00E942827C0
:104E800081110AC0809130268111F7CF80E090E037
:104E9000DF91CF911F9108954FB7F894E0912225AB
:104EA000F0E0DF01AA0FBB1FAD5DBA4D8D919C9163
:104EB00011979C012F5F3F4F2D933C930024F69553
:104EC000E7950794F695E7950794FE2FE02DE80FF8
:104ED000F91FE85DFA4DC0834FBF112329F0CD2F94
:104EE000DD0FDD0B10E0C9CF81E090E0DF91CF91C5
:104EF0001F910895BC0180E00C9433277F928F921C
:104F00009F92AF92BF92CF92DF92EF92FF920F9358
:104F10001F93CF93DF936B018A01809148268930DC
:104F200009F452C050E4A52EB12C80E00E9428273D
:104F3000811113C0809130268111F7CFC801DF9114
:104F4000CF911F910F91FF90EF90DF90CF90BF9086
:104F5000AF909F908F907F9008957FB6F894809146
:104F6000222590E04C01880C991CF401ED5DFA4D6E
:104F7000E080F18095012E193F09E80120173107E3
:104F800008F4E901002496958795079496958795EE
:104F90000794982F802D8E0D9F1DAE01B601885D60
:104FA0009A4D0E94062BF401ED5DFA4DEC0EFD1EAC
:104FB000E082F1827FBECC0EDD1E0C1B1D0B09F0C2
:104FC000B4CF80E090E0BBCF000F111FABCFAB019F
:104FD000BC0180E00C947E27DB018F939F930E949D
:104FE0006028BF91AF91A29F800D911DA39F900D4E
:104FF000B29F900D11240895AA1BBB1B51E107C05D
:10500000AA1FBB1FA617B70710F0A61BB70B881F58
:10501000991F5A95A9F780959095BC01CD010895E7
:10502000A1E21A2EAA1BBB1BFD010DC0AA1FBB1FAC
:10503000EE1FFF1FA217B307E407F50720F0A21B1E
:10504000B30BE40BF50B661F771F881F991F1A948B
:1050500069F760957095809590959B01AC01BD01B5
:10506000CF010895052E97FB1EF400940E94492855
:1050700057FD07D00E94102807FC03D04EF40C9473
:10508000492850954095309521953F4F4F4F5F4FA0
:10509000089590958095709561957F4F8F4F9F4FA4
:1050A0000895A29FB001B39FC001A39F700D811D01
:1050B0001124911DB29F700D811D1124911D089521
:1050C0000E945128A59F900DB49F900DA49F800D24
:1050D000911D112408955058BB27AA270ED04DC109
:1050E0003ED130F043D120F031F49F3F11F41EF453
:1050F00033C10EF4E095E7FB29C1E92F4FD180F3CE
:10510000BA17620773078407950718F071F49EF5C4
:1051100067C10EF4E0950B2EBA2FA02D0B01B9013B
:1051200090010C01CA01A0011124FF27591B99F01D
:10513000593F50F4503E68F11A16F040A22F232F29
:10514000342F4427585FF3CF469537952795A79579
:10515000F0405395C9F77EF41F16BA0B620B730B20
:10516000840BBAF09150A1F0FF0FBB1F661F771F91
:10517000881FC2F70EC0BA0F621F731F841F48F446
:10518000879577956795B795F7959E3F08F0B3CFCC
:105190009395880F08F09927EE0F979587950895B6
:1051A0000CD0EBC0E3D040F0DAD030F021F45F3F18
:1051B00019F0CCC0511115C1CFC0F0D098F399238C
:1051C000C9F35523B1F3951B550BBB27AA276217CB
:1051D0007307840738F09F5F5F4F220F331F441F10
:1051E000AA1FA9F333D00E2E3AF0E0E830D0915048
:1051F0005040E695001CCAF729D0FE2F27D0660F35
:10520000771F881FBB1F261737074807AB07B0E873
:1052100009F0BB0B802DBF01FF2793585F4F2AF089
:105220009E3F510568F092C0DCC05F3FECF3983EB2
:10523000DCF3869577956795B795F7959F5FC9F7E6
:10524000880F911D9695879597F90895E1E0660F6F
:10525000771F881FBB1F621773078407BA0720F0E8
:10526000621B730B840BBA0BEE1F88F7E095089551
:1052700004D06894B111B5C0089598D088F09F57B4
:1052800090F0B92F9927B751A0F0D1F0660F771F92
:10529000881F991F1AF0BA95C9F712C0B13081F072
:1052A0009FD0B1E008959CC0672F782F8827B85F02
:1052B00039F0B93FCCF3869577956795B395D9F7D3
:1052C0003EF490958095709561957F4F8F4F9F4FDD
:1052D0000895E89409C097FB3EF4909580957095E9
:1052E00061957F4F8F4F9F4F9923A9F0F92F96E932
:1052F000BB279395F695879577956795B795F111A7
:10530000F8CFFAF4BB0F11F460FF1BC06F5F7F4F43
:105310008F4F9F4F16C0882311F096E911C0772355
:1053200021F09EE8872F762F05C0662371F096E85E
:10533000862F70E060E02AF09A95660F771F881F2D
:10534000DAF7880F9695879597F9089597F99F67EB
:1053500080E870E060E008959FEF80EC08950024FD
:105360000A941616170618060906089500240A94CA
:1053700012161306140605060895092E0394000C50
:1053800011F4882352F0BB0F40F4BF2B11F460FFDF
:1053900004C06F5F7F4F8F4F9F4F089557FD905808
:1053A000440F551F59F05F3F71F04795880F97FBE9
:1053B000991F61F09F3F79F08795089512161306A3
:1053C0001406551FF2CF4695F1DF08C016161706D2
:1053D0001806991FF1CF8695710561050894089507
:1053E000E894BB2766277727CB0197F908950BD060
:1053F000C4CFB5DF28F0BADF18F0952309F0A6CFA7
:10540000ABCF1124EECFCADFA0F3959FD1F3950F58
:1054100050E0551F629FF001729FBB27F00DB11D38
:10542000639FAA27F00DB11DAA1F649F6627B00DC8
:10543000A11D661F829F2227B00DA11D621F739FB1
:10544000B00DA11D621F839FA00D611D221F749FBF
:105450003327A00D611D231F849F600D211D822F06
:10546000762F6A2F11249F5750408AF0E1F088234D
:105470004AF0EE0FFF1FBB1F661F771F881F91505A
:105480005040A9F79E3F510570F060CFAACF5F3F13
:10549000ECF3983EDCF3869577956795B795F7958D
:1054A000E7959F5FC1F7FE2B880F911D9695879515
:1054B00097F908959F9305D00F9007FCEE5F28C0E1
:1054C0004BCF74DFE8F3E894E0E0BB279F57F0F0A0
:1054D0002AED3FE049EC06C0EE0FBB0F661F771FB9
:1054E000881F28F0B23A62077307840728F0B25A7F
:1054F000620B730B840BE3959A9572F7803830F446
:105500009A95BB0F661F771F881FD2F7904813C06C
:10551000EF93E0FF06C0A2EA2AED3FE049EC5FEB23
:10552000ECDD2BDF0F90039401FC9058ECEFF1E0E1
:105530000EC09F3F31F0915020F487957795679585
:10554000B795880F911D9695879597F908959F9324
:105550008F937F936F93FF93EF939B01AC0147DF92
:10556000EF91FF9105D02F913F914F915F913FCFE8
:10557000DF93CF931F930F93FF92EF92DF927B0104
:105580008C01689405C0DA2EEF013DDFFE01E8943E
:10559000A5912591359145915591AEF3EF01ADDD82
:1055A000FE019701A801DA9479F7DF90EF90FF9060
:1055B0000F911F91CF91DF910895FC0188279927C2
:1055C000E89421912032E9F3293010F02E30C8F30D
:1055D0002B3241F02D3239F4689404C00E94272BFD
:1055E000820F911D219120532A30C0F31EF4909513
:1055F00081959F4F0895FC010590061621F000202B
:10560000D9F7C00108953197CF010895FB01DC015E
:1056100002C001900D9241505040D8F70895FB010F
:10562000DC018D91019080190110D9F3990B089537
:10563000FB01DC014150504048F001900D920020E8
:10564000C9F701C01D9241505040E0F708957AE03B
:10565000979F902D879F802D910D112408950F9372
:105660001F93CF93DF93182F092FEB018B8181FDBF
:1056700003C08FEF9FEF20C082FF10C04E815F817B
:105680002C813D81421753077CF4E881F9819F0109
:105690002F5F3F4F28833983108306C0E885F98543
:1056A000812F1995892B29F72E813F812F5F3F4F3D
:1056B0002E833F83812F902FDF91CF911F910F91E8
:1056C0000895CF93DF93CDB7DEB7FE013696619193
:1056D0007191AF0180916326909164260E945E05CE
:1056E000DF91CF91089560916326709164260C94A8
:1056F0002F2B0F931F93CF93DF93E0916326F091AD
:105700006426238121FF1BC0EC0100E010E0899199
:105710006091632670916426DB011896ED91FC91EF
:105720001997882331F01995892B89F30FEF1FEF13
:10573000EECF8AE01995892B11F4C80102C08FEFD2
:105740009FEFDF91CF911F910F910895FA01AA2742
:10575000283051F1203181F1E8946F936E7F6E5FB4
:105760007F4F8F4F9F4FAF4FB1E03ED0B4E03CD062
:10577000670F781F891F9A1FA11D680F791F8A1F45
:10578000911DA11D6A0F711D811D911DA11D20D0AC
:1057900009F468943F912AE0269F11243019305D66
:1057A0003193DEF6CF010895462F4770405D419357
:1057B000B3E00FD0C9F7F6CF462F4F70405D4A33A4
:1057C00018F0495D31FD4052419302D0A9F7EACF6C
:1057D000B4E0A6959795879577956795BA95C9F79B
:1057E00000976105710508959B01AC010A2E06948E
:1057F0005795479537952795BA95C9F7620F731F47
:10580000841F951FA01D08950E941C2C608171812A
:10581000828193810895242F0E94292C252F0E9494
:10582000292C0C94132C0E94282C272F0C94292C03
:1058300003D0808199270895E0ECF1E0378537FDAA
:10584000FDCF348538603487FC01E050F04F089577
:10585000262FE0ECF1E0378537FDFDCF3485377F2B
:105860003487378531FF09C036E3328738ED34BFDE
:1058700031E03387378537FDFDCF33E332878083CF
:1058800091831282248325E3228728ED31E024BF0F
:0A589000338701960895F894FFCFC6
:10589A009BB78BBFFB018091CA014093CA017DE986
:1058AA0070933400E8958093CA019BBF08952091B4
:1058BA00CF0127FDFCCF9BB78BBFFB018091CA01AB
:1058CA0023E22093CA010A01E89511248093CA01B0
:0458DA009BBF0895D3
:1058DE000000000200000000C30A000000000003E8
:1058EE0000000000000000000000000000000000AA
:1058FE0000000000000000000000000045434520AD
:10590E00333331204146534B00536865616666263A
:10591E004361726C736F6E00040309049E20522063
:10592E0000005A205620BA20B0200902430002017E
:10593E0000C032090400000102020100052400101B
:10594E0001042402020524060001052401030107B7
:10595E0005820340001009040100020A000000073E
:10596E0005810240000007050202400000001201FE
:10597E00000202000040EB031023000101020001AF
:10598E00CF25B723C123C323D3247923B123C52322
:10599E00C323000010002000400080000001000220
:1059AE00FF0353746172740D00530025750D0A00C8
:1059BE0053687574646F776E0D0020256C58202522
:1059CE006C58200043414C49423A20256C752025E5
:1059DE006C750D0A003A0D002D302D002D312D0065
:1059EE005420002D322D004520002D332D002D3456
:1059FE002D002D352D002D362D002D382D002D3955
:105A0E002D002D412D002D422D002D432D002D4416
:105A1E002D002D452D002D462D002D472D004368C0
:105A2E0065636B73756D204661696C0D002558209A
:105A3E0025752025752025750A00546F6F20666523
:105A4E007720626974730D00507265616D626C65CA
:0E5A5E00204661696C0D00256C640D0A000085
:00000001FF
